:100000000C942A000C943C000C94F3050C943C00D6
:100010000C943C000C943C000C943C000C943C0070
:100020000C943C000C943C000C943C000C943C0060
:100030000C943C000C943C000C943C000C943C0050
:100040000C943C000C943C000C943C000C943C0040
:100050000C943C0011241FBECFE5D4E0DEBFCDBF21
:1000600010E0A0E6B0E001C01D92A236B107E1F7B2
:100070000E9448060C945B060C940000DF93CF931B
:10008000CDB7DEB72A970FB6F894DEBF0FBECDBF4F
:100090008A836B834C8319828B81883008F0B9C1C5
:1000A0008C81882309F077C08A81282F30E03A8735
:1000B000298789859A858130910559F129853A8565
:1000C000223031052CF489859A85009769F060C04B
:1000D00029853A852230310589F189859A858330D1
:1000E000910509F440C054C0AAE3B0E0EAE3F0E0AF
:1000F0008081482F8B81282F30E081E090E0022E14
:1001000002C0880F991F0A94E2F7809584238C938C
:1001100082C1A7E3B0E0E7E3F0E08081482F8B8164
:10012000282F30E081E090E0022E02C0880F991F56
:100130000A94E2F7809584238C936DC1A4E3B0E028
:10014000E4E3F0E08081482F8B81282F30E081E0CC
:1001500090E0022E02C0880F991F0A94E2F7809562
:1001600084238C9358C1A1E3B0E0E1E3F0E0808107
:10017000482F8B81282F30E081E090E0022E02C0D2
:10018000880F991F0A94E2F7809584238C9343C1CA
:1001900081E0898340C18C81813009F072C08A81FD
:1001A000282F30E038872F838F8198858130910503
:1001B00049F12F813885223031052CF48F819885C3
:1001C000009761F05BC02F8138852230310571F1D5
:1001D0008F81988583309105E9F150C0AAE3B0E0A2
:1001E000EAE3F0E08081482F8B81282F30E081E026
:1001F00090E0022E02C0880F991F0A94E2F7842B28
:100200008C9309C1A7E3B0E0E7E3F0E08081482FD9
:100210008B81282F30E081E090E0022E02C0880F11
:10022000991F0A94E2F7842B8C93F5C0A4E3B0E005
:10023000E4E3F0E08081482F8B81282F30E081E0DB
:1002400090E0022E02C0880F991F0A94E2F7842BD7
:100250008C93E1C0A1E3B0E0E1E3F0E08081482FBE
:100260008B81282F30E081E090E0022E02C0880FC1
:10027000991F0A94E2F7842B8C93CDC081E0898387
:10028000CAC08C81823009F0C1C08A81282F30E039
:100290003E832D838D819E818130910509F43EC07E
:1002A0002D813E81223031052CF48D819E81009775
:1002B00071F0A9C02D813E812230310509F455C06D
:1002C0008D819E818330910509F476C09CC0AAE39C
:1002D000B0E0EAE3F0E08081482F8B81282F30E006
:1002E00081E090E002C0880F991F2A95E2F780957F
:1002F00084238C93ABE3B0E0EBE3F0E08081482F04
:100300008B81282F30E081E090E0022E02C0880F20
:10031000991F0A94E2F7842B8C937DC0A7E3B0E089
:10032000E7E3F0E08081482F8B81282F30E081E0E7
:1003300090E002C0880F991F2A95E2F780958423E8
:100340008C93A8E3B0E0E8E3F0E08081482F8B8154
:10035000282F30E081E090E0022E02C0880F991F24
:100360000A94E2F7842B8C9356C0A4E3B0E0E4E354
:10037000F0E08081482F8B81282F30E081E090E0F1
:1003800002C0880F991F2A95E2F7809584238C93E9
:10039000A5E3B0E0E5E3F0E08081482F8B81282FD2
:1003A00030E081E090E0022E02C0880F991F0A948D
:1003B000E2F7842B8C932FC0A1E3B0E0E1E3F0E0FF
:1003C0008081482F8B81282F30E081E090E002C0AF
:1003D000880F991F2A95E2F7809584238C93A2E3D6
:1003E000B0E0E2E3F0E08081482F8B81282F30E0FD
:1003F00081E090E0022E02C0880F991F0A94E2F774
:10040000842B8C9308C081E0898305C081E08983B7
:1004100002C081E0898389812A960FB6F894DEBFF5
:100420000FBECDBFCF91DF910895DF93CF9300D062
:1004300000D00F92CDB7DEB78A836B8319828A8191
:10044000282F30E03D832C838C819D818130910564
:10045000D1F02C813D81223031052CF48C819D819D
:10046000009761F01FC02C813D812230310581F061
:100470008C819D818330910581F014C0EAE3F0E026
:100480008B81808311C0E7E3F0E08B8180830CC017
:10049000E4E3F0E08B81808307C0E1E3F0E08B814F
:1004A000808302C081E0898389810F900F900F9033
:1004B0000F900F90CF91DF910895DF93CF93CDB739
:1004C000DEB728970FB6F894DEBF0FBECDBF8A8384
:1004D0006B834C8319828B81883008F0F1C08C814A
:1004E000882309F077C08A81282F30E038872F834E
:1004F0008F8198858130910559F12F81388522307F
:1005000031052CF48F819885009769F060C02F81A8
:1005100038852230310589F18F81988583309105A6
:1005200009F440C054C0ABE3B0E0EBE3F0E08081FD
:10053000482F8B81282F30E081E090E0022E02C00E
:10054000880F991F0A94E2F7809584238C93BAC090
:10055000A8E3B0E0E8E3F0E08081482F8B81282F0A
:1005600030E081E090E0022E02C0880F991F0A94CB
:10057000E2F7809584238C93A5C0A5E3B0E0E5E382
:10058000F0E08081482F8B81282F30E081E090E0DF
:10059000022E02C0880F991F0A94E2F780958423E7
:1005A0008C9390C0A2E3B0E0E2E3F0E08081482FBA
:1005B0008B81282F30E081E090E0022E02C0880F6E
:1005C000991F0A94E2F7809584238C937BC081E085
:1005D000898378C08C81813009F074C08A81282F8A
:1005E00030E03E832D838D819E818130910549F1DC
:1005F0002D813E81223031052CF48D819E81009722
:1006000061F05BC02D813E812230310571F18D8119
:100610009E8183309105E9F150C0ABE3B0E0EBE39C
:10062000F0E08081482F8B81282F30E081E090E03E
:10063000022E02C0880F991F0A94E2F7842B8C9334
:1006400041C0A8E3B0E0E8E3F0E08081482F8B816F
:10065000282F30E081E090E0022E02C0880F991F21
:100660000A94E2F7842B8C932DC0A5E3B0E0E5E378
:10067000F0E08081482F8B81282F30E081E090E0EE
:10068000022E02C0880F991F0A94E2F7842B8C93E4
:1006900019C0A2E3B0E0E2E3F0E08081482F8B8153
:1006A000282F30E081E090E0022E02C0880F991FD1
:1006B0000A94E2F7842B8C9305C081E0898302C001
:1006C00081E08983898128960FB6F894DEBF0FBE3A
:1006D000CDBFCF91DF910895DF93CF9300D000D0AD
:1006E0000F92CDB7DEB78A836B8319828A81282F58
:1006F00030E03D832C838C819D8181309105D1F048
:100700002C813D81223031052CF48C819D81009714
:1007100061F01FC02C813D812230310581F08C8138
:100720009D818330910581F014C0EBE3F0E08B8173
:10073000808311C0E8E3F0E08B8180830CC0E5E3A7
:10074000F0E08B81808307C0E2E3F0E08B8180835F
:1007500002C081E0898389810F900F900F900F90E4
:100760000F90CF91DF910895DF93CF93CDB7DEB790
:1007700027970FB6F894DEBF0FBECDBF8A836B8379
:100780005D834C8319828C819D81009709F4A9C0F7
:100790008B81883008F0A5C08A81282F30E03F8304
:1007A0002E834E815F8141305105C1F18E819F8141
:1007B0008230910534F42E813F812115310571F08D
:1007C0008DC04E815F814230510509F447C08E8152
:1007D0009F818330910509F461C080C0E9E3F0E0B6
:1007E0008081482F50E08B81282F30E081E090E01D
:1007F00002C0880F991F2A95E2F79A01282339230E
:100800008B81882F90E0A90102C0559547958A9564
:10081000E2F7CA01EC81FD81808365C0E6E3F0E088
:100820008081482F50E08B81282F30E081E090E0DC
:1008300002C0880F991F2A95E2F79A0128233923CD
:100840008B81882F90E0A90102C0559547958A9524
:10085000E2F7CA01EC81FD81808345C0E3E3F0E06B
:100860008081482F50E08B81282F30E081E090E09C
:1008700002C0880F991F2A95E2F79A01282339238D
:100880008B81882F90E0A90102C0559547958A95E4
:10089000E2F7CA01EC81FD81808325C0E0E3F0E04E
:1008A0008081482F50E08B81282F30E081E090E05C
:1008B00002C0880F991F2A95E2F79A01282339234D
:1008C0008B81882F90E0A90102C0559547958A95A4
:1008D000E2F7CA01EC81FD81808305C081E0898354
:1008E00002C081E08983898127960FB6F894DEBF24
:1008F0000FBECDBFCF91DF910895DF93CF9300D08E
:100900000F92CDB7DEB78983ABE5B0E0EBE5F0E061
:1009100080818F7D8C9383E063E042E00E943E0003
:100920008981282F30E03B832A838A819B81823012
:10093000910529F12A813B812330310534F48A81E4
:100940009B818130910561F046C02A813B81233033
:10095000310521F18A819B818430910571F13BC081
:10096000A5E5B0E0E5E5F0E080818B7F8C93A5E51F
:10097000B0E0E5E5F0E0808188608C932CC0A5E5CF
:10098000B0E0E5E5F0E0808184608C93A5E5B0E01F
:10099000E5E5F0E0808188608C931DC0A5E5B0E0BE
:1009A000E5E5F0E0808184608C93A5E5B0E0E5E5C5
:1009B000F0E08081877F8C930EC0A5E5B0E0E5E58F
:1009C000F0E080818B7F8C93A5E5B0E0E5E5F0E079
:1009D0008081877F8C93ABE5B0E0EBE5F0E0808130
:1009E00080688C930F900F900F90CF91DF910895B6
:1009F000DF93CF9300D00F92CDB7DEB78983ABE5FD
:100A0000B0E0EBE5F0E080818F7D8C9383E062E0E5
:100A100042E00E943E008981282F30E03B832A83F8
:100A20008A819B818230910529F12A813B81233083
:100A3000310534F48A819B818130910561F046C093
:100A40002A813B812330310521F18A819B818430C9
:100A5000910571F13BC0A5E5B0E0E5E5F0E08081EE
:100A60008E7F8C93A5E5B0E0E5E5F0E080818260C3
:100A70008C932CC0A5E5B0E0E5E5F0E080818160D5
:100A80008C93A5E5B0E0E5E5F0E0808182608C9391
:100A90001DC0A5E5B0E0E5E5F0E0808181608C93C4
:100AA000A5E5B0E0E5E5F0E080818D7F8C930EC098
:100AB000A5E5B0E0E5E5F0E080818E7F8C93A5E5CB
:100AC000B0E0E5E5F0E080818D7F8C93ABE5B0E0B0
:100AD000EBE5F0E0808180648C930F900F900F9095
:100AE000CF91DF910895DF93CF930F92CDB7DEB70B
:100AF0008983ABE5B0E0EBE5F0E080818F7D8C93FE
:100B000081E062E042E00E943E008981813041F450
:100B1000A4E5B0E0E4E5F0E080818F7B8C930AC02F
:100B20008981823039F4A4E5B0E0E4E5F0E0808129
:100B300080648C93ABE5B0E0EBE5F0E0808180620F
:100B40008C930F90CF91DF910895DF93CF9300D0D6
:100B50000F92CDB7DEB789838981282F30E03B83A0
:100B60002A838A819B818230910591F02A813B8181
:100B700023303105A9F08A819B8181309105B9F438
:100B8000ABE5B0E0EBE5F0E080818F7B8C930FC0AC
:100B9000ABE5B0E0EBE5F0E080818F778C9307C0A8
:100BA000ABE5B0E0EBE5F0E080818F7D8C930F90BA
:100BB0000F900F90CF91DF910895DF93CF9300D0E6
:100BC000CDB7DEB79A83898389819A81009731F006
:100BD00089819A8190936100809360000F900F90BB
:100BE000CF91DF9108951F920F920FB60F921124AB
:100BF0002F933F934F935F936F937F938F939F9325
:100C0000AF93BF93EF93FF93DF93CF93CDB7DEB74F
:100C1000E0916000F09161000995CF91DF91FF9123
:100C2000EF91BF91AF919F918F917F916F915F9164
:100C30004F913F912F910F900FBE0F901F901895DD
:100C4000DF93CF93CDB7DEB7AFE5B0E0EFE5F0E0EF
:100C5000808180688C93CF91DF910895DF93CF934B
:100C6000CDB7DEB7AFE5B0E0EFE5F0E080818F779C
:100C70008C93CF91DF910895DF93CF93CDB7DEB7FB
:100C800082E060E041E00E945D02CF91DF91089533
:100C9000DF93CF93CDB7DEB782E060E041E00E9402
:100CA0003E000E94200681E00E947D048CE396E0D5
:0A0CB0000E94DD05FFCFF894FFCF8E
:00000001FF
