:100000000C942A000C943F000C943F000C943F0089
:100010000C943F000C943F000C943F000C943F0064
:100020000C943F000C943F000C943F000C943F0054
:100030000C943F000C943F000C943F000C943F0044
:100040000C943F000C943F000C943F000C943F0034
:100050000C943F0011241FBECFE5D4E0DEBFCDBF1E
:1000600010E0A0E6B0E0E4E8F9E102C005900D92EE
:10007000A836B107D9F70E94DD0B0C94C00C0C9484
:100080000000EF92FF920F931F937B018C0120E001
:1000900030E040E05FE40E94410388238CF0C80117
:1000A000B70120E030E040E05FE40E94B9010E9427
:1000B000A1039B01AC01205030404040504806C095
:1000C000C801B7010E94A1039B01AC01B901CA019B
:1000D0001F910F91FF90EF900895A0E0B0E0E3E74B
:1000E000F0E00C94890CDC012B01FA019C91923018
:1000F00008F439C1EB018881823008F433C19430AF
:1001000069F4843009F02FC111969C91119789816F
:10011000981709F428C1A0E6B0E025C1843009F49D
:1001200021C18230A9F4923009F01DC19A01AD01BC
:1001300088E0EA010990AE01E90109929E0181502F
:10014000C1F7E201898111969C918923818308C1BD
:10015000923009F407C112962D903C901397EB0151
:100160008A819B811496AD90BD90CD90DC901797BD
:10017000EC80FD800E811F819101281B390BB90194
:1001800037FF04C066277727621B730B6032710547
:100190000CF061C0121613066CF537014801062EEB
:1001A00004C096948794779467940A94D2F721E0D8
:1001B00030E040E050E004C0220F331F441F551FC1
:1001C0006A95D2F721503040404050402E213F21C7
:1001D00040235123211531054105510521F021E02E
:1001E00030E040E050E079018A01E628F72808294C
:1001F00019293CC0232BD1F1260E371E35014601AB
:10020000062E04C096948794779467940A94D2F744
:1002100021E030E040E050E004C0220F331F441FD3
:10022000551F6A95D2F721503040404050402A2156
:100230003B214C215D21211531054105510521F05E
:1002400021E030E040E050E059016A01A628B728DB
:10025000C828D9280BC0821593052CF01C01AA24AC
:10026000BB24650103C0EE24FF24870111969C91F5
:10027000D20111968C91981709F445C0992339F051
:10028000A80197012A193B094C095D0906C0A6017E
:1002900095012E193F09400B510B57FD08C01182E3
:1002A0003382228224833583468357831DC081E0B5
:1002B00081833382228288279927DC01821B930B5A
:1002C000A40BB50B84839583A683B7830DC0220F3F
:1002D000331F441F551F24833583468357838281F0
:1002E000938101979383828324813581468157814D
:1002F000DA01C9010197A109B1098F5F9F4FAF4F83
:10030000BF4328F30BC0918333822282EA0CFB1C8B
:100310000C1D1D1DE482F5820683178383E0808314
:10032000248135814681578157FF1AC0C901AA2708
:1003300097FDA095BA2F81709070A070B0705695FF
:10034000479537952795822B932BA42BB52B848328
:100350009583A683B7838281938101969383828359
:10036000DF0101C0D201CD01CDB7DEB7E2E10C94CF
:10037000A50CA0E2B0E0EFEBF1E00C94950C6983E2
:100380007A838B839C832D833E834F835887E9E058
:10039000EE2EF12CEC0EFD1ECE010196B7010E944F
:1003A000CA048E010F5E1F4FCE010596B8010E9450
:1003B000CA048A8991E089278A8BC701B801AE01F6
:1003C000475E5F4F0E946D000E94F503A096E6E035
:1003D0000C94B10CA0E2B0E0E0EFF1E00C94950CCD
:1003E00069837A838B839C832D833E834F835887D5
:1003F000F9E0EF2EF12CEC0EFD1ECE010196B701B7
:100400000E94CA048E010F5E1F4FCE010596B801EF
:100410000E94CA04C701B801AE01475E5F4F0E9447
:100420006D000E94F503A096E6E00C94B10CA0E2EA
:10043000B0E0EDE1F2E00C94890C69837A838B8360
:100440009C832D833E834F835887CE010196BE0146
:10045000675F7F4F0E94CA04CE010596BE016F5EA2
:100460007F4F0E94CA049985923088F08989823032
:10047000C8F0943019F4823051F404C0843029F467
:10048000923081F480E690E0C6C0923049F420E0DA
:100490009A858A89981321E02A87CE010996BBC0E4
:1004A000823049F420E09A858A89981321E02A8BCA
:1004B000CE014196B0C02D843E844F8458886D880B
:1004C0007E888F88988CEE24FF248701AA24BB2481
:1004D000650140E050E060E070E0E0E0F0E0C10184
:1004E00081709070892BE9F0E60CF71C081D191D2E
:1004F0009A01AB012A0D3B1D4C1D5D1D80E090E073
:10050000A0E0B0E0E614F7040805190520F481E046
:1005100090E0A0E0B0E0BA01A901480F591F6A1F9E
:100520007B1FAA0CBB1CCC1CDD1C97FE08C081E005
:1005300090E0A0E0B0E0A82AB92ACA2ADB2A3196C6
:10054000E032F10549F0660C771C881C991C569422
:10055000479437942794C3CFFA85EA892B893C893D
:100560008B859C85280F391F2E5F3F4F17C0CA010E
:1005700081709070892B61F016950795F794E79438
:1005800080E090E0A0E0B0E8E82AF92A0A2B1B2BD3
:1005900076956795579547952F5F3F4F77FDE7CF46
:1005A0000CC0440F551F661F771F17FD4160EE0CEE
:1005B000FF1C001F111F21503040403090E05907B0
:1005C00090E0690790E4790760F32B8F3C8FDB01A3
:1005D000CA018F779070A070B07080349105A1052A
:1005E000B10561F447FD0AC0E114F10401051105EC
:1005F00029F0405C5F4F6F4F7F4F40781A8EFE1797
:1006000011F081E08A8F4D8F5E8F6F8F78A383E02A
:10061000898FCE0149960E94F503A096E2E10C94E1
:10062000A50CA8E1B0E0E7E1F3E00C94950C698338
:100630007A838B839C832D833E834F83588789E005
:10064000E82EF12CEC0EFD1ECE010196B7010E94A2
:10065000CA048E010F5E1F4FCE010596B8010E949D
:10066000CA048985823040F08989823028F0C70128
:10067000B8010E94420501C08FEF6896E6E00C9435
:10068000B10CA8E1B0E0E7E4F3E00C94950C6983C9
:100690007A838B839C832D833E834F83588789E0A5
:1006A000E82EF12CEC0EFD1ECE010196B7010E9442
:1006B000CA048E010F5E1F4FCE010596B8010E943D
:1006C000CA048985823040F08989823028F0C701C8
:1006D000B8010E94420501C08FEF6896E6E00C94D5
:1006E000B10CA8E1B0E0E7E7F3E00C94950C698366
:1006F0007A838B839C832D833E834F83588789E045
:10070000E82EF12CEC0EFD1ECE010196B7010E94E1
:10071000CA048E010F5E1F4FCE010596B8010E94DC
:10072000CA048985823040F08989823028F0C70167
:10073000B8010E94420501C081E06896E6E00C9491
:10074000B10CACE0B0E0E7EAF3E00C94990C6983FB
:100750007A838B839C83CE010196BE016B5F7F4FB2
:100760000E94CA048D81823061F1823050F1843060
:1007700021F48E81882351F12EC02F81388537FDD9
:1007800020C06E812F3131051CF06623F9F023C0A3
:100790008EE190E0821B930B29853A854B855C8521
:1007A00004C056954795379527958A95D2F76623C5
:1007B000B1F050954095309521953F4F4F4F5F4F89
:1007C0000EC020E030E040E050E009C02FEF3FEFE6
:1007D0004FEF5FE704C020E030E040E050E8B901AF
:1007E000CA012C96E2E00C94B50CDF92EF92FF92D6
:1007F0000F931F93FC01E480F58006811781D1805F
:100800008081823048F480E090E0A0E1B0E0E82A06
:10081000F92A0A2B1B2BA5C0843009F49FC0823013
:1008200021F4EE24FF24870105C0E114F104010541
:10083000110519F4E0E0F0E096C0628173819FEF4A
:10084000623879070CF05BC022E83FEF261B370BBC
:100850002A3131052CF020E030E040E050E02AC0A1
:10086000B801A701022E04C0769567955795479564
:100870000A94D2F781E090E0A0E0B0E004C0880FD5
:10088000991FAA1FBB1F2A95D2F70197A109B10989
:100890008E219F21A023B1230097A105B10521F04E
:1008A00081E090E0A0E0B0E09A01AB01282B392B69
:1008B0004A2B5B2BDA01C9018F779070A070B07062
:1008C00080349105A105B10539F427FF09C0205CEA
:1008D0003F4F4F4F5F4F04C0215C3F4F4F4F5F4F23
:1008E000E0E0F0E02030A0E03A07A0E04A07A0E412
:1008F0005A0710F0E1E0F0E079018A0127C0603882
:10090000710564F5FB01E158FF4FD801C7018F77EE
:100910009070A070B07080349105A105B10539F4D4
:10092000E7FE0DC080E490E0A0E0B0E004C08FE3FB
:1009300090E0A0E0B0E0E80EF91E0A1F1B1F17FFB1
:1009400005C016950795F794E794319687E01695BC
:100950000795F794E7948A95D1F705C0EE24FF2414
:100960008701EFEFF0E06E2F679566276795902F70
:100970009F77D794DD24D7948E2F8695492F462BC9
:10098000582F5D29B701CA011F910F91FF90EF9079
:10099000DF900895FC01DB01408151812281622FAB
:1009A0006F7770E0221F2227221F9381892F880FE3
:1009B000822B282F30E0991F9927991F11969C931D
:1009C000119721153105A9F54115510561057105ED
:1009D00011F482E037C082E89FEF13969C938E93C8
:1009E00012979A01AB0167E0220F331F441F551F76
:1009F0006A95D1F783E08C930DC0220F331F441FFB
:100A0000551F12968D919C911397019713969C9365
:100A10008E931297203080E0380780E0480780E40A
:100A2000580758F314962D933D934D935C93179765
:100A300008952F3F310579F4411551056105710580
:100A400019F484E08C93089564FF03C081E08C93D3
:100A500012C01C9210C02F57304013963C932E9317
:100A6000129783E08C9387E0440F551F661F771F12
:100A70008A95D1F7706414964D935D936D937C9332
:100A8000179708951F93DC01FB019C91923008F4A5
:100A900047C08081823008F443C0943051F41196ED
:100AA0001C91843099F58181682F70E0611B710978
:100AB0003FC0843021F0923031F48230B9F181812D
:100AC000882389F12DC011961C9111978230F1F085
:100AD00081811817D9F412962D913C911397828138
:100AE00093818217930794F028173907BCF0149666
:100AF0008D919D910D90BC91A02D248135814681D1
:100B00005781281739074A075B0718F4112341F06A
:100B10000AC082179307A407B50740F4112319F000
:100B200061E070E005C06FEF7FEF02C060E070E051
:100B3000CB011F910895DF93CF93CDB7DEB72A97EE
:100B40000FB6F894DEBF0FBECDBF8A836B834C8394
:100B500019828B81883008F0B9C18C81882309F013
:100B600077C08A81282F30E03A87298789859A853E
:100B70008130910559F129853A85223031052CF4CF
:100B800089859A85009769F060C029853A85223069
:100B9000310589F189859A858330910509F440C032
:100BA00054C0AAE3B0E0EAE3F0E08081482F8B81F3
:100BB000282F30E081E090E0022E02C0880F991FBC
:100BC0000A94E2F7809584238C9382C1A7E3B0E076
:100BD000E7E3F0E08081482F8B81282F30E081E02F
:100BE00090E0022E02C0880F991F0A94E2F78095C8
:100BF00084238C936DC1A4E3B0E0E4E3F0E0808152
:100C0000482F8B81282F30E081E090E0022E02C037
:100C1000880F991F0A94E2F7809584238C9358C11A
:100C2000A1E3B0E0E1E3F0E08081482F8B81282F41
:100C300030E081E090E0022E02C0880F991F0A94F4
:100C4000E2F7809584238C9343C181E0898340C17E
:100C50008C81813009F072C08A81282F30E038877A
:100C60002F838F8198858130910549F12F813885B7
:100C7000223031052CF48F819885009761F05BC09C
:100C80002F8138852230310571F18F81988583302D
:100C90009105E9F150C0AAE3B0E0EAE3F0E0808119
:100CA000482F8B81282F30E081E090E0022E02C097
:100CB000880F991F0A94E2F7842B8C9309C1A7E34C
:100CC000B0E0E7E3F0E08081482F8B81282F30E00F
:100CD00081E090E0022E02C0880F991F0A94E2F78B
:100CE000842B8C93F5C0A4E3B0E0E4E3F0E08081D2
:100CF000482F8B81282F30E081E090E0022E02C047
:100D0000880F991F0A94E2F7842B8C93E1C0A1E32A
:100D1000B0E0E1E3F0E08081482F8B81282F30E0C4
:100D200081E090E0022E02C0880F991F0A94E2F73A
:100D3000842B8C93CDC081E08983CAC08C818230A2
:100D400009F0C1C08A81282F30E03E832D838D8138
:100D50009E818130910509F43EC02D813E81223073
:100D600031052CF48D819E81009771F0A9C02D81F1
:100D70003E812230310509F455C08D819E8183303A
:100D8000910509F476C09CC0AAE3B0E0EAE3F0E084
:100D90008081482F8B81282F30E081E090E002C0D5
:100DA000880F991F2A95E2F7809584238C93ABE3F3
:100DB000B0E0EBE3F0E08081482F8B81282F30E01A
:100DC00081E090E0022E02C0880F991F0A94E2F79A
:100DD000842B8C937DC0A7E3B0E0E7E3F0E0808153
:100DE000482F8B81282F30E081E090E002C0880FEF
:100DF000991F2A95E2F7809584238C93A8E3B0E0AD
:100E0000E8E3F0E08081482F8B81282F30E081E0FB
:100E100090E0022E02C0880F991F0A94E2F7842BFB
:100E20008C9356C0A4E3B0E0E4E3F0E08081482F67
:100E30008B81282F30E081E090E002C0880F991F5D
:100E40002A95E2F7809584238C93A5E3B0E0E5E34F
:100E5000F0E08081482F8B81282F30E081E090E006
:100E6000022E02C0880F991F0A94E2F7842B8C93FC
:100E70002FC0A1E3B0E0E1E3F0E08081482F8B8157
:100E8000282F30E081E090E002C0880F991F2A955A
:100E9000E2F7809584238C93A2E3B0E0E2E3F0E0F4
:100EA0008081482F8B81282F30E081E090E0022E56
:100EB00002C0880F991F0A94E2F7842B8C9308C014
:100EC00081E0898305C081E0898302C081E0898354
:100ED00089812A960FB6F894DEBF0FBECDBFCF91A1
:100EE000DF910895DF93CF9300D000D00F92CDB75C
:100EF000DEB78A836B8319828A81282F30E03D8395
:100F00002C838C819D8181309105D1F02C813D8194
:100F1000223031052CF48C819D81009761F01FC037
:100F20002C813D812230310581F08C819D8183307F
:100F3000910581F014C0EAE3F0E08B81808311C059
:100F4000E7E3F0E08B8180830CC0E4E3F0E08B8189
:100F5000808307C0E1E3F0E08B81808302C081E001
:100F6000898389810F900F900F900F900F90CF91F0
:100F7000DF910895DF93CF93CDB7DEB728970FB6F3
:100F8000F894DEBF0FBECDBF8A836B834C8319827A
:100F90008B81883008F0F1C08C81882309F077C0FC
:100FA0008A81282F30E038872F838F819885813080
:100FB000910559F12F813885223031052CF48F812C
:100FC0009885009769F060C02F81388522303105FF
:100FD00089F18F8198858330910509F440C054C010
:100FE000ABE3B0E0EBE3F0E08081482F8B81282F6A
:100FF00030E081E090E0022E02C0880F991F0A9431
:10100000E2F7809584238C93BAC0A8E3B0E0E8E3CC
:10101000F0E08081482F8B81282F30E081E090E044
:10102000022E02C0880F991F0A94E2F7809584234C
:101030008C93A5C0A5E3B0E0E5E3F0E08081482F04
:101040008B81282F30E081E090E0022E02C0880FD3
:10105000991F0A94E2F7809584238C9390C0A2E3B1
:10106000B0E0E2E3F0E08081482F8B81282F30E070
:1010700081E090E0022E02C0880F991F0A94E2F7E7
:10108000809584238C937BC081E0898378C08C8198
:10109000813009F074C08A81282F30E03E832D838F
:1010A0008D819E818130910549F12D813E812230D3
:1010B00031052CF48D819E81009761F05BC02D81FC
:1010C0003E812230310571F18D819E818330910501
:1010D000E9F150C0ABE3B0E0EBE3F0E08081482FF2
:1010E0008B81282F30E081E090E0022E02C0880F33
:1010F000991F0A94E2F7842B8C9341C0A8E3B0E0D7
:10110000E8E3F0E08081482F8B81282F30E081E0F8
:1011100090E0022E02C0880F991F0A94E2F7842BF8
:101120008C932DC0A5E3B0E0E5E3F0E08081482F8B
:101130008B81282F30E081E090E0022E02C0880FE2
:10114000991F0A94E2F7842B8C9319C0A2E3B0E0B4
:10115000E2E3F0E08081482F8B81282F30E081E0AE
:1011600090E0022E02C0880F991F0A94E2F7842BA8
:101170008C9305C081E0898302C081E089838981E5
:1011800028960FB6F894DEBF0FBECDBFCF91DF918A
:101190000895DF93CF9300D000D00F92CDB7DEB784
:1011A0008A836B8319828A81282F30E03D832C83C8
:1011B0008C819D8181309105D1F02C813D8122303F
:1011C00031052CF48C819D81009761F01FC02C812A
:1011D0003D812230310581F08C819D8183309105E4
:1011E00081F014C0EBE3F0E08B81808311C0E8E371
:1011F000F0E08B8180830CC0E5E3F0E08B8180839D
:1012000007C0E2E3F0E08B81808302C081E0898344
:1012100089810F900F900F900F900F90CF91DF91D9
:101220000895DF93CF93CDB7DEB727970FB6F89425
:10123000DEBF0FBECDBF8A836B835D834C83198273
:101240008C819D81009709F4A9C08B81883008F0BA
:10125000A5C08A81282F30E03F832E834E815F8195
:1012600041305105C1F18E819F818230910534F466
:101270002E813F812115310571F08DC04E815F8136
:101280004230510509F447C08E819F81833091051A
:1012900009F461C080C0E9E3F0E08081482F50E0AC
:1012A0008B81282F30E081E090E002C0880F991FE9
:1012B0002A95E2F79A01282339238B81882F90E021
:1012C000A90102C0559547958A95E2F7CA01EC81BC
:1012D000FD81808365C0E6E3F0E08081482F50E027
:1012E0008B81282F30E081E090E002C0880F991FA9
:1012F0002A95E2F79A01282339238B81882F90E0E1
:10130000A90102C0559547958A95E2F7CA01EC817B
:10131000FD81808345C0E3E3F0E08081482F50E009
:101320008B81282F30E081E090E002C0880F991F68
:101330002A95E2F79A01282339238B81882F90E0A0
:10134000A90102C0559547958A95E2F7CA01EC813B
:10135000FD81808325C0E0E3F0E08081482F50E0EC
:101360008B81282F30E081E090E002C0880F991F28
:101370002A95E2F79A01282339238B81882F90E060
:10138000A90102C0559547958A95E2F7CA01EC81FB
:10139000FD81808305C081E0898302C081E089836B
:1013A000898127960FB6F894DEBF0FBECDBFCF91CF
:1013B000DF910895DF93CF93CDB7DEB728970FB6AF
:1013C000F894DEBF0FBECDBF8A837C836B83198206
:1013D000EB81FC818081823031F0EB81FC81808166
:1013E000813009F03AC1EB81FC818081823009F0C3
:1013F00097C08A81282F30E038872F838F81988586
:101400008430910509F45FC02F813885253031057E
:10141000DCF48F8198858130910509F43FC02F81DC
:101420003885223031052CF48F819885009779F129
:1014300074C02F81388522303105B9F18F819885AC
:1014400083309105C9F169C02F8138852730310576
:1014500009F44EC08F819885883091055CF42F8106
:10146000388525303105B1F18F8198858630910519
:10147000C1F153C02F8138852830310509F43FC0B0
:101480008F8198858930910509F440C046C0EB8171
:10149000FC81818160E40E94C908E1C0EB81FC818C
:1014A000818169E70E94C908DAC0EB81FC818181F2
:1014B00064E20E94C908D3C0EB81FC81818160E3B2
:1014C0000E94C908CCC0EB81FC81818169E10E9446
:1014D000C908C5C0EB81FC81818162E10E94C90815
:1014E000BEC0EB81FC81818162E00E94C908B7C067
:1014F000EB81FC81818168E70E94C908B0C0EB8163
:10150000FC81818160E00E94C908A9C0EB81FC8157
:10151000818160E10E94C908A2C081E089839FC0E7
:10152000EB81FC818081813009F099C08A81282F6C
:1015300030E03E832D838D819E818430910509F4B6
:101540005FC02D813E8125303105DCF48D819E8187
:101550008130910509F43FC02D813E812230310553
:101560002CF48D819E81009779F174C02D813E818C
:1015700022303105B9F18D819E8183309105C9F109
:1015800069C02D813E812730310509F44EC08D811F
:101590009E81883091055CF42D813E812530310596
:1015A000B1F18D819E8186309105C1F153C02D81AD
:1015B0003E812830310509F43FC08D819E818930FC
:1015C000910509F440C046C0EB81FC8181816FEB3D
:1015D0000E94C90844C0EB81FC81818166E80E94B9
:1015E000C9083DC0EB81FC8181816BED0E94C90877
:1015F00036C0EB81FC8181816FEC0E94C9082FC04D
:10160000EB81FC81818166EE0E94C90828C0EB81D4
:10161000FC8181816DEE0E94C90821C0EB81FC81B3
:1016200081816DEF0E94C9081AC0EB81FC81818124
:1016300067E80E94C90813C0EB81FC8181816FEFCC
:101640000E94C9080CC0EB81FC8181816FEE0E9471
:10165000C90805C081E0898302C081E0898389814E
:1016600028960FB6F894DEBF0FBECDBFCF91DF91A5
:101670000895DF93CF9300D00F92CDB7DEB79B8351
:101680008A831982EA81FB8181816FEF0E94720750
:10169000EA81FB818281EA81FB819381692F41E0AC
:1016A0000E949B05EA81FB818081823029F0EA81DA
:1016B000FB818081813061F5EA81FB81808182300C
:1016C00089F4EA81FB818281EA81FB819381692F20
:1016D00041E00E94BA07EA81FB81818160E40E94B7
:1016E000C90818C0EA81FB818081813099F4EA81C0
:1016F000FB818281EA81FB819381692F40E00E9416
:10170000BA07EA81FB8181816FEB0E94C90802C0A0
:1017100081E0898389810F900F900F90CF91DF91A5
:101720000895DF93CF9300D00F92CDB7DEB79B83A0
:101730008A831982EA81FB81818160E00E947207BD
:10174000EA81FB818281EA81FB819381692F41E0FB
:101750000E949B05EA81FB818081823029F0EA8129
:10176000FB818081813001F5EA81FB8180818230BB
:1017700059F4EA81FB818281EA81FB819381692F9F
:1017800040E00E94BA0712C0EA81FB81808181306B
:1017900069F4EA81FB818281EA81FB819381692F6F
:1017A00041E00E94BA0702C081E0898389810F90DD
:1017B0000F900F90CF91DF910895DF93CF93CDB726
:1017C000DEB763970FB6F894DEBF0FBECDBF81E0E2
:1017D0008F8781E061E042E00E949B0582E0888B78
:1017E00082E0898B81E08A8B1B8A9E01215F3F4FBB
:1017F00081E061E0A9010E9411098F85882309F029
:1018000083C080E090E0A0EAB1E48B879C87AD873D
:10181000BE876B857C858D859E8520E030E04AE71C
:1018200053E40E941702DC01CB018F839887A987BC
:10183000BA876F81788589859A8520E030E040E815
:101840005FE30E94710388232CF481E090E09E8383
:101850008D833FC06F81788589859A8520E03FEF31
:101860004FE757E40E94110318164CF56B857C85F1
:101870008D859E8520E030E040E251E40E94170211
:10188000DC01CB01BC01CD010E944100DC01CB0198
:101890009E838D830FC089E190E09C838B838B8135
:1018A0009C810197F1F79C838B838D819E810197A9
:1018B0009E838D838D819E81009769F714C06F810F
:1018C000788589859A850E944100DC01CB019E8341
:1018D0008D838D819E819A83898389819A810197E5
:1018E000F1F79A8389839E01215F3F4F81E061E098
:1018F000A9010E9411098F85882309F076CFCE01B6
:1019000040960E94390B71CFCE0140960E94910BF8
:101910006CCF2F923F924F925F926F927F928F92F5
:101920009F92AF92BF92CF92DF92EF92FF920F936E
:101930001F93CF93DF93CDB7DEB7CA1BDB0B0FB678
:10194000F894DEBF0FBECDBF09942A883988488835
:101950005F846E847D848C849B84AA84B984C884CB
:10196000DF80EE80FD800C811B81AA81B981CE0FC2
:10197000D11D0FB6F894DEBF0FBECDBFED010895A7
:04198000F894FFCF09
:0819840000000000000000005B
:00000001FF
